:020000040800F2
:10400000FFFF012089030308EFF10008F1F1000828
:104010002DF3000855F300087DF3000800000000B0
:1040200000000000000000000000000061780008AF
:10403000A5F300080000000001790008EBF100087A
:104040000904030809040308090403080904030810
:10405000090403080904030883F0000893F000082A
:10406000A3F00008B3F00008C1F00008750F0108C4
:1040700009040308990F0108C5CC00085DCC0008AD
:104080004D060108911B01080904030809040308EF
:10409000090403080904030809040308D9F0000807
:1040A00009040308090403080904030809040308B0
:1040B000090403080904030809040308690F010837
:1040C0005D0F010809040308090403080904030833
:1040D0000904030809040308DD1B01088519010808
:1040E0004FF1000809040308090403080904030840
:1040F00009040308891D01080904030809040308C9
:10410000090403080904030809040308090403084F
:10411000090403080904030809040308999D010818
:104120002583020809040308090403080904030895
:10413000090403080904030809040308090403081F
:10414000090403080904030809040308199800086E
:10415000BD82020809040308F5170108F1170108D8
:104160008D0F0108810F01080904030809040308E1
:1041700009040308090403080904030809040308DF
:08418000090403080904030807
:1041900081F0004102E000BF83F0004330B54FEAF8
:1041A00041044FEA430594EA050F08BF90EA020F65
:1041B0001FBF54EA000C55EA020C7FEA645C7FEAF8
:1041C000655C00F0E2804FEA5454D4EB5555B8BF1B
:1041D0006D420CDD2C4480EA020281EA030382EA8C
:1041E000000083EA010180EA020281EA0303362D1E
:1041F00088BF30BD11F0004F4FEA01314FF4801CF1
:104200004CEA113102D0404261EB410113F0004F02
:104210004FEA03334CEA133302D0524263EB4303B9
:1042200094EA050F00F0A780A4F10104D5F1200E57
:104230000DDB02FA0EFC22FA05F2801841F10001B2
:1042400003FA0EF2801843FA05F359410EE0A5F186
:1042500020050EF1200E012A03FA0EFC28BF4CF0B7
:10426000020C43FA05F3C01851EBE37101F000456D
:1042700007D54FF0000EDCF1000C7EEB00006EEB7A
:104280000101B1F5801F1BD3B1F5001F0CD3490804
:104290005FEA30004FEA3C0C04F101044FEA44525B
:1042A00012F5800F80F09A80BCF1004F08BF5FEAE2
:1042B000500C50F1000041EB045141EA050130BDC2
:1042C0005FEA4C0C404141EB0101013C28BFB1F5D4
:1042D000801FE9D291F0000F04BF01460020B1FA1F
:1042E00081F308BF2033A3F10B03B3F120020CDAF2
:1042F0000C3208DD02F1140CC2F10C0201FA0CF0D0
:1043000021FA02F10CE002F11402D8BFC2F1200C34
:1043100001FA02F120FA0CFCDCBF41EA0C019040EA
:10432000E41AA2BF01EB0451294330BD6FEA040433
:104330001F3C1CDA0C340EDC04F11404C4F120021E
:1043400020FA04F001FA02F340EA030021FA04F330
:1043500045EA030130BDC4F10C04C4F1200220FA87
:1043600002F001FA04F340EA0300294630BD21FAC5
:1043700004F0294630BD94F0000F83F4801306BF8B
:1043800081F480110134013D4EE77FEA645C18BF7F
:104390007FEA655C29D094EA050F08BF90EA020F16
:1043A00005D054EA000C04BF1946104630BD91EA0E
:1043B000030F1EBF0021002030BD5FEA545C05D111
:1043C0004000494128BF41F0004130BD14F5800450
:1043D0003CBF01F5801130BD01F0004545F0FE41C4
:1043E00041F470014FF0000030BD7FEA645C1ABFF9
:1043F000194610467FEA655C1CBF0B46024650EA30
:10440000013406BF52EA033591EA030F41F400215B
:1044100030BD00BF90F0000F04BF0021704730B5E1
:104420004FF4806404F132044FF000054FF00001B6
:1044300050E700BF90F0000F04BF0021704730B577
:104440004FF4806404F1320410F0004548BF40424C
:104450004FF000013EE700BF42004FEAE2014FEAA1
:1044600031014FEA02701FBF12F07F4393F07F4F7C
:1044700081F06051704732F07F4208BF704793F07F
:104480007F4F04BF41F40021704730B54FF4607492
:1044900001F0004521F000411CE700BF50EA010295
:1044A00008BF704730B54FF000050AE050EA01023E
:1044B00008BF704730B511F0004502D5404261EBAE
:1044C00041014FF4806404F132045FEA915C3FF4EF
:1044D000D8AE4FF003025FEADC0C18BF03325FEA8C
:1044E000DC0C18BF033202EBDC02C2F1200300FA3D
:1044F00003FC20FA02F001FA03FE40EA0E0021FA62
:1045000002F11444BDE600BF70B54FF0FF0C4CF44F
:10451000E06C1CEA11541DBF1CEA135594EA0C0F01
:1045200095EA0C0F00F0DEF82C4481EA030621EA3C
:104530004C5123EA4C5350EA013518BF52EA033577
:1045400041F4801143F4801338D0A0FB02CE4FF029
:104550000005E1FB02E506F00042E0FB03E54FF059
:104560000006E1FB03569CF0000F18BF4EF0010E51
:10457000A4F1FF04B6F5007F64F5407404D25FEA4D
:104580004E0E6D4146EB060642EAC62141EA555100
:104590004FEAC52040EA5E504FEACE2EB4F1FD0C42
:1045A00088BFBCF5E06F1ED8BEF1004F08BF5FEAC0
:1045B000500E50F1000041EB045170BD06F0004672
:1045C00046EA010140EA020081EA0301B4EB5C041F
:1045D000C2BFD4EB0C0541EA045170BD41F4801117
:1045E0004FF0000E013C00F3AB8014F1360FDEBF3C
:1045F000002001F0004170BDC4F10004203C35DA18
:104600000C341BDC04F11404C4F1200500FA05F39A
:1046100020FA04F001FA05F240EA020001F000423B
:1046200021F0004110EBD37021FA04F642EB0601B1
:104630005EEA430E08BF20EAD37070BDC4F10C04DB
:10464000C4F1200500FA04F320FA05F001FA04F29F
:1046500040EA020001F0004110EBD37041F100018B
:104660005EEA430E08BF20EAD37070BDC4F1200596
:1046700000FA05F24EEA020E20FA04F301FA05F2FE
:1046800043EA020321FA04F001F0004121FA04F2A6
:1046900020EA020000EBD3705EEA430E08BF20EA76
:1046A000D37070BD94F0000F0FD101F000464000B0
:1046B00041EB010111F4801F08BF013CF7D041EA32
:1046C000060195F0000F18BF704703F00046520036
:1046D00043EB030313F4801F08BF013DF7D043EA07
:1046E0000603704794EA0C0F0CEA135518BF95EABD
:1046F0000C0F0CD050EA410618BF52EA4306D1D144
:1047000081EA030101F000414FF0000070BD50EA62
:10471000410606BF1046194652EA430619D094EAEC
:104720000C0F02D150EA013613D195EA0C0F05D1D6
:1047300052EA03361CBF104619460AD181EA03012A
:1047400001F0004141F0FE4141F470014FF00000E2
:1047500070BD41F0FE4141F4780170BD70B54FF07D
:10476000FF0C4CF4E06C1CEA11541DBF1CEA1355FD
:1047700094EA0C0F95EA0C0F00F0A7F8A4EB0504DF
:1047800081EA030E52EA03354FEA013100F08880D6
:104790004FEA03334FF0805545EA131343EA12639F
:1047A0004FEA022245EA111545EA10654FEA002654
:1047B0000EF000419D4208BF964244F1FD0404F50D
:1047C000407402D25B084FEA3202B61A65EB030569
:1047D0005B084FEA32024FF480104FF4002CB6EB26
:1047E000020E75EB030E22BFB61A754640EA0C00A6
:1047F0005B084FEA3202B6EB020E75EB030E22BFE6
:10480000B61A754640EA5C005B084FEA3202B6EB26
:10481000020E75EB030E22BFB61A754640EA9C00E5
:104820005B084FEA3202B6EB020E75EB030E22BFB5
:10483000B61A754640EADC0055EA060E18D04FEA73
:10484000051545EA16754FEA06164FEAC30343EA13
:1048500052734FEAC2025FEA1C1CC0D111F4801FE0
:104860000BD141EA00014FF000004FF0004CB6E7D9
:1048700011F4801F04BF01430020B4F1FD0C88BF78
:10488000BCF5E06F3FF6AFAEB5EB030C04BFB6EB83
:10489000020C5FEA500C50F1000041EB045170BD76
:1048A0000EF0004E4EEA113114EB5C04C2BFD4EBA3
:1048B0000C0541EA045170BD41F480114FF0000E27
:1048C000013C90E645EA060E8DE60CEA135594EAA3
:1048D0000C0F08BF95EA0C0F3FF43BAF94EA0C0FA6
:1048E0000AD150EA01347FF434AF95EA0C0F7FF41B
:1048F00025AF104619462CE795EA0C0F06D152EA6F
:1049000003353FF4FDAE1046194622E750EA410652
:1049100018BF52EA43067FF4C5AE50EA41047FF463
:104920000DAF52EA43057FF4EBAE12E74FF0FF3CC8
:1049300006E000BF4FF0010C02E000BF4FF0010C99
:104940004DF804CD4FEA410C7FEA6C5C4FEA430C12
:1049500018BF7FEA6C5C1BD001B050EA410C0CBF61
:1049600052EA430C91EA030F02BF90EA020F0020C3
:10497000704710F1000F91EA030F58BF994208BF2A
:1049800090422CBFD8176FEAE37040F001007047E7
:104990004FEA410C7FEA6C5C02D150EA013C07D13E
:1049A0004FEA430C7FEA6C5CD6D152EA033CD3D089
:1049B0005DF8040B704700BF8446104662468C4683
:1049C0001946634600E000BF01B5FFF7B7FF0028B6
:1049D00048BF10F1000F01BD4DF808EDFFF7F4FFDF
:1049E0000CBF012000205DF808FB00BF4DF808ED6A
:1049F000FFF7EAFF34BF012000205DF808FB00BF8D
:104A00004DF808EDFFF7E0FF94BF012000205DF8AE
:104A100008FB00BF4DF808EDFFF7CEFF94BF012063
:104A200000205DF808FB00BF4DF808EDFFF7C4FF5C
:104A300034BF012000205DF808FB00BF4FEA410CA5
:104A40007FEA6C5C02D150EA013C0AD14FEA430C88
:104A50007FEA6C5C02D152EA033C02D14FF00000C5
:104A600070474FF0010070474A0011D212F5001252
:104A700011D20DD56FF47873B3EB62520ED44FEAB6
:104A8000C12343F0004343EA505323FA02F0704736
:104A90004FF00000704750EA013002D14FF0FF3074
:104AA00070474FF0000070474FEA4102B2F1E04317
:104AB00024BFB3F5001CDCF1FE5C0DD901F0004C05
:104AC0004FEAC0024CEA5070B2F1004F40EB830055
:104AD00008BF20F00100704711F0804F21D113F181
:104AE0003872BCBF01F00040704741F480114FEABA
:104AF0005252C2F11802C2F1200C10FA0CF320FA43
:104B000002F018BF40F001004FEAC1234FEAD3235F
:104B100003FA0CFC40EA0C0023FA02F34FEA4303C9
:104B2000CCE77FEA625307D150EA01331EBF4FF052
:104B3000FE4040F44000704701F0004040F0FE406D
:104B400040F40000704700BF80F0004002E000BF6A
:104B500081F0004142001FBF5FEA410392EA030F68
:104B60007FEA226C7FEA236C6AD04FEA1262D2EBB2
:104B70001363C1BFD218414048404140B8BF5B42B7
:104B8000192B88BF704710F0004F40F4000020F050
:104B90007F4018BF404211F0004F41F4000121F066
:104BA0007F4118BF494292EA030F3FD0A2F10102B0
:104BB00041FA03FC10EB0C00C3F1200301FA03F1EE
:104BC00000F0004302D5494260EB4000B0F5000F11
:104BD00013D3B0F1807F06D340084FEA310102F1D0
:104BE0000102FE2A51D2B1F1004F40EBC25008BF82
:104BF00020F0010040EA03007047490040EB00004C
:104C0000013A28BFB0F5000FEDD2B0FA80FCACF14C
:104C1000080CB2EB0C0200FA0CF0AABF00EBC25079
:104C200052421843BCBFD0401843704792F0000F67
:104C300081F4000106BF80F400000132013BB5E7BA
:104C40004FEA41037FEA226C18BF7FEA236C21D030
:104C500092EA030F04D092F0000F08BF0846704795
:104C600090EA010F1CBF0020704712F07F4F04D163
:104C7000400028BF40F00040704712F100723CBF76
:104C800000F50000704700F0004343F0FE4040F4A0
:104C9000000070477FEA226216BF08467FEA23635E
:104CA0000146420206BF5FEA412390EA010F40F449
:104CB000800070474FF0000304E000BF10F0004395
:104CC00048BF40425FEA000C08BF704743F096437C
:104CD00001464FF000001CE050EA010208BF704797
:104CE0004FF000030AE000BF50EA010208BF70471E
:104CF00011F0004302D5404261EB41015FEA010C33
:104D000002BF84460146002043F0B64308BFA3F12A
:104D10008053A3F50003BCFA8CF2083AA3EBC2530C
:104D200010DB01FA02FC634400FA02FCC2F120022B
:104D3000BCF1004F20FA02F243EB020008BF20F062
:104D40000100704702F1200201FA02FCC2F12002C8
:104D500050EA4C0021FA02F243EB020008BF20EABD
:104D6000DC70704753B94AB9002908BF00281CBF3E
:104D70004FF0FF314FF0FF3000F0ECB9ADF1080C0F
:104D80006DE904CE00F084F8DDF804E0DDE90223EB
:104D900004B07047430803F05533C01A830803F08A
:104DA000333300F03330184400EB101000F00F30B4
:104DB00000EB002000EB0040000E704707EE900A69
:104DC000F5EEC07AF1EE10FA01D400F023B8F1EE5E
:104DD000677A08B517EE900A00F01CF8404261EBC4
:104DE000410108BD38B50022002304460D46FFF7F7
:104DF000FDFD28B920462946BDE8384000F02AB814
:104E0000204605F1004100F025F8404261EB4101E8
:104E100038BD00BFD0B5FFF71FFB0C4B0022064684
:104E20000F46FFF771FBFFF71FFE0446FFF7F2FA8C
:104E3000074B0022FFF768FB02460B463046394617
:104E4000FFF7AAF9FFF710FE2146D0BD0000F03DA4
:104E50000000F041D0B50C4B002206460F46FFF78C
:104E600053FBFFF701FE0446FFF7D4FA074B00227D
:104E7000FFF74AFB02460B4630463946FFF78CF9EE
:104E8000FFF7F2FD2146D0BD0000F03D0000F041EB
:104E90002DE9F047089D04468C46002B40F08380A6
:104EA0008A42174647D9B2FA82F242B1C2F12000D3
:104EB00024FA00F09140974040EA010C94404FEAF8
:104EC0001748230CBCFBF8F61FFA87FE08FB16C137
:104ED00043EA014306FB0EF1994209D9FB1806F19A
:104EE000FF3080F01981994240F21681023E3B4426
:104EF0005B1AA4B2B3FBF8F008FB103344EA034496
:104F000000FB0EFEA64509D93C1900F1FF3380F0E5
:104F10000581A64540F2028102383C4440EA064041
:104F2000A4EB0E0400261DB1D4400023C5E90043C4
:104F30003146BDE8F08702B9FFDEB2FA82F2002AFC
:104F400050D1CB1B4FEA174E1FFA87F80126B3FB4F
:104F5000FEFC210C0EFB1C3341EA034108FB0CF361
:104F60008B4207D979180CF1FF3002D28B4200F244
:104F7000E9808446C91AA3B2B1FBFEF00EFB101102
:104F800043EA014408FB00F8A04507D93C1900F1A9
:104F9000FF3302D2A04500F2D9801846A4EB0804E2
:104FA00040EA0C40BFE78B4209D9002D00F0B180E8
:104FB0000026C5E9000130463146BDE8F087B3FA66
:104FC00083F6002E4AD18B4202D3824200F2B8808F
:104FD000841A61EB030101208C46002DA8D0C5E99D
:104FE000004CA5E7C2F1200320FA03F6974001FA2E
:104FF00002F04FEA174ED9403043030CB1FBFEF6E6
:105000001FFA87F80EFB161143EA014306FB08F16D
:10501000994204FA02F409D9FB1806F1FF3C80F02A
:105020008D80994240F28A80023E3B445B1A81B2F5
:10503000B3FBFEF00EFB103341EA034100FB08F323
:105040008B4207D9791800F1FF3C73D28B4271D99A
:1050500002383944CB1A40EA064678E7C6F1200CFC
:1050600003FA06F422FA0CF31C4320FA0CF701FAB7
:1050700006F34FEA144E21FA0CF11F433B0CB1FB2F
:10508000FEF91FFA84F80EFB191143EA014109FBEE
:1050900008FA8A4502FA06F200FA06F308D96118FE
:1050A00009F1FF3048D28A4546D9A9F102092144C5
:1050B000A1EB0A01BFB2B1FBFEF00EFB101147EAF3
:1050C000014700FB08F8B84507D9E71900F1FF319F
:1050D0002ED2B8452CD90238274440EA0940A7EB24
:1050E0000807A0FB02894F45C64649461AD317D088
:1050F0005DB1B3EB0E0267EB010707FA0CFCF2405F
:105100004CEA0202F740C5E9002700263146BDE817
:10511000F0872E4628460BE70646E9E61846FDE6E8
:105120004345E5D2B8EB020E69EB04010138DFE735
:105130000846D2E760468DE78146B9E7664675E7DF
:1051400030464AE7ACF1020C394413E702383C44DC
:1051500024E700BF704700BF10F8012B11F8013B96
:10516000012A28BF9A42F7D0D01A7047034613F895
:10517000012B002AFBD1181A0138704700000000EB
:1051800001F0FF01102A2BDB10F0070F08D010F8F8
:10519000013B013A8B422DD010F0070F42B3F6D1FC
:1051A000F0B441EA012141EA014122F007047FF015
:1051B00000070023F0E80256083C85EA010586EA6C
:1051C000010685FA47F5A3FA87F586FA47F6A5FAA8
:1051D00087F68EB9EED1F0BC01F0FF0102F00702B4
:1051E00032B110F8013B013A83EA010313B1F8D15F
:1051F0000020704701387047002D06BF3546033840
:10520000073815F0010F07D1013015F4807F02BF78
:10521000013015F4C03F0130F0BC0138704700BFC9
:1052200000F108034FF0FF32C0E90223436003613D
:1052300000230360704700230361704743684B609D
:105240009A688A605160996008610368013303605D
:10525000704730B50C68631C0AD103695A684A600C
:1052600091608B605960086103680133036030BD51
:1052700000F10802134652681568A542FAD9EDE715
:10528000D0E9011203698A60416851605A6882421C
:1052900004BF82685A60002202611A68013A1A60EB
:1052A000186870472DE9F041044602F0EBFA334BE1
:1052B000334D1A68334E01321A602A68002A52D1DF
:1052C0002C601B68012B28D12F48DFF8F8802F4F66
:1052D000FFF7A6FF2E48FFF7A3FF2E48FFF7A0FF1A
:1052E0002D48FFF79DFF2D48FFF79AFF2C48FFF749
:1052F00097FF4046FFF794FF3846FFF791FF294894
:10530000FFF78EFF2848FFF78BFF2848FFF788FF3D
:10531000274BC3F80080274B1F60274A2749136893
:10532000086801331360E26A236401239340034356
:105330000B60154B142000FB0230211DFFF77EFF90
:1053400002F0C2FA336863B12B68DA6AE36A9A4200
:1053500007D21B4B4FF080521A60BFF34F8FBFF341
:105360006F8FBDE8F0813368002BD6D12B68DA6AE5
:10537000E36A9A4298BF2C60CFE700BFE415002093
:105380005815002044160020641500200C1600203B
:10539000781500208C150020A0150020B4150020E1
:1053A000C8150020301600205C160020481600208A
:1053B0005C15002060150020F0150020F415002079
:1053C00004ED00E0F8150020064A13681968064B42
:1053D00019B94FF0FF321A6070471268D26812682C
:1053E000F9E700BF5C1500202416002010B5044624
:1053F00028B90A490A4840F2167228F0FBF8626997
:10540000084B9A4207D1A06A074B984203D0B0FAE2
:1054100080F0400910BD0020FCE700BF685A030877
:10542000835A030848160020301600202DE9F04763
:10543000DDE909844FEA82094A4606460D46206B9B
:10544000A5211F462FF08CF9226BA9F10409914484
:1054500029F00709002D37D06B1E04F134020935FD
:1054600013F8011F02F8011B197809B1AB42F7D1FB
:10547000002384F83D30089D052D28BF05254FF0F9
:10548000000AE562A564201DC4F84CA0FFF7D3FE16
:10549000C5F1060504F11800FFF7CDFEC4E914AA12
:1054A0002461A5616462C4F858A084F85CA03A46FF
:1054B0003146484602F0BCF92060B8F1000F01D037
:1054C000C8F80040BDE8F08784F83450D3E7000006
:1054D00010B590F85D3004463BB9006B02F01EF940
:1054E0002046BDE8104002F019B9012BF9D0022B7B
:1054F00007D0BDE810400349034840F67A7228F00F
:1055000079B810BD685A0308895A030880B50D4C54
:105510000D4F0E4D236813B918F0C2F9F9E702F0E8
:10552000B1F9FB68DE68301DFFF7AAFE2B68013B6E
:105530002B602368013B236002F0C6F93046FFF779
:10554000C7FFE7E7E81500205C160020E4150020FF
:10555000F8B51B4B1B4F1D680446386804300E46D7
:10556000FFF78EFE3B4640B939681748CF6A02689C
:105570000121B94022EA01020260621C07D136B162
:1055800019681248BDE8F8400431FFF757BE1A68A1
:105590002C19546007D30E4A10681968BDE8F8400A
:1055A0000431FFF756BE0B4A106819680431FFF743
:1055B00050FE094B1A68A24288BF1C60F8BD00BFAC
:1055C0007016002058150020F41500204816002001
:1055D000601500205C150020241600202DE9F04302
:1055E00087B0DDE90F5406460F46904699462DB91F
:1055F00019491A4840F2432227F0FCFF2CB91649FA
:1056000017484FF4117227F0F5FF60230493049BB1
:10561000602B05D0104913484FF4137227F0EAFFAE
:10562000049B9CB1B5B1022384F85D3005AB2563C2
:1056300001930E9B0294009342464B4639463046F6
:10564000FFF7F4FE2046FFF72DFE059C204607B02D
:10565000BDE8F0832C46F9E7685A0308CF5A0308DF
:10566000E65A0308FB5A03082DE9F043074685B0C4
:10567000900088461646994601F0B4FF0546E8B109
:10568000602001F0AFFF0446A8B1002380F85D3030
:105690000D9B056301930C9B0290009332464B4691
:1056A00041463846FFF7C2FE2046FFF7FBFD0120CA
:1056B00005B0BDE8F083284602F030F84FF0FF3027
:1056C000F6E70000F8B50446274D02F0DBF804B910
:1056D0002C68261D3046FFF7D3FD60B9E76A234BDF
:1056E000142078431B5833B9214901220B68BA4072
:1056F00023EA02030B60A36A1BB104F11800FFF751
:10570000BFFD1C4A1368013313602B68A34221D1EB
:1057100019483146FFF792FD184A136801331360A8
:1057200002F0D2F8164B1B689BB12B68A34210D134
:10573000144B1B682BB11449144840F2CD4227F09A
:1057400059FF134B4FF080521A60BFF34F8FBFF3D6
:105750006F8FF8BD0F4A13682046013B1360FFF7B7
:10576000B7FEFFF731FEDBE7581500206415002077
:10577000F4150020F01500205C160020E81500202C
:1057800044160020EC150020685A0308145B030837
:1057900004ED00E0E4150020F8B5044628B91849E6
:1057A000184840F2645227F025FF174B1B68A342AC
:1057B00020D002F067F8154B65691F68144B1E680E
:1057C00002F082F8BD4217D0B54215D0114B9D4270
:1057D00008D1A36A83B994F85C30012B0CBF022076
:1057E0000320F8BD0C4B9D4208D0002D0CBF0420B7
:1057F0000120F6E70020F4E70220F2E70420F0E7BA
:10580000685A03082E5B0308581500205C15002019
:1058100060150020481600205C16002073B5044671
:1058200028B91C491C484FF4E86227F0E3FE1B4DE1
:105830002B68A3422BD054B302F024F82046FFF784
:10584000D5FDF8B1211D08460191FFF719FD144857
:10585000E26A066801990123934033430360114BC8
:10586000142000FB0230FFF7E9FC2B68E26ADB6AD8
:105870009A4207D30C4B4FF080521A60BFF34F8F00
:10588000BFF36F8F02B0BDE8704002F01DB802B0E8
:1058900070BD00BF685A0308345B03085815002028
:1058A000F41500206415002004ED00E010B588B068
:1058B000002407AA06A905A8CDE9054419F064FF4C
:1058C000059B0293069B079A18491948CDE90043A6
:1058D0002346FFF783FE174B1860E0B101F02AFC66
:1058E00001281AD14FF05F0383F31188BFF36F8F44
:1058F000BFF34F8F104B4FF0FF321A600F4B186001
:105900000F4B1C6014F0ECF90E4B1B685A6B0E4BDE
:105910001A6002F051F808B010BD0130FBD10B49FC
:105920000B4840F62A0227F065FEF4E7425B0308C5
:105930000D550008201600202416002044160020D3
:105940007016002058150020040000E0685A030873
:10595000475B0308024A136801331360704700BFB6
:10596000EC150020014B1868704700BF701600202E
:105970002DE9F74F3F4B404A196811603F4A1268C2
:10598000002A70D11D6801351D60A5B93C4C236803
:105990001B682BB13B493C4840F6AC2227F02AFE5D
:1059A0003A4B2268196821601A60394A136801333A
:1059B0001360FFF709FD374E374F3368DFF8E48097
:1059C0009D424FF0000411D2D8F80030DA6A142357
:1059D0005343FB58022B314B1B6828BF0124002B7B
:1059E00018BF0124204603B0BDE8F08FDFF890A077
:1059F000DFF8B490DAF800301B681BB94FF0FF33C2
:105A00003360E1E7DAF80030DB68D3F80CB0DBF89C
:105A10000420954201D23260D6E70BF1040108461A
:105A20000191FFF72DFCDBF82820019922B10BF141
:105A30001800FFF725FC0199DBF82C00D9F800309D
:105A4000012282401A43C9F80020142202FB007090
:105A5000FFF7F4FBD8F80010DBF82C20CB6A9A4251
:105A600028BF0124C6E70E4A1368013313600024DF
:105A7000B8E700BF70160020080000E0EC15002019
:105A80005C150020685A0308785B03086015002045
:105A9000281600202416002064150020741600200B
:105AA0002C16002058150020F41500202DE9F34194
:105AB0002F4C23682BB92F492F4840F6990227F025
:105AC00099FD01F0DFFE2368013B2360246834B1B7
:105AD000002401F0F9FE204602B0BDE8F081274B1A
:105AE0001B68002BF4D0264D264EDFF8AC801FE05B
:105AF000EB68DC6804F11800FFF7C2FB211D0846C3
:105B00000191FFF7BDFBE26A30680199012707FAAE
:105B100002F30343142000FB02803360FFF78EFB87
:105B2000194BE26A1B68DB6A9A4201D3174B1F606C
:105B30002B68002BDCD10CB1FFF746FC144D2C6810
:105B400044B1124E0127FFF713FF00B13760013C4B
:105B5000F9D12C600D4B1B68002BB9D00D4B4FF0C9
:105B600080521A60BFF34F8FBFF36F8F0124B0E7ED
:105B7000EC150020685A0308A35B0308E415002015
:105B800030160020F415002058150020741600204F
:105B90002C16002004ED00E06415002038B50C46FA
:105BA000054628B91B491C4840F2E24227F022FD75
:105BB0002CB91849194840F2E34227F01BFD184B55
:105BC0001B682BB11349174840F2E44227F012FD3D
:105BD000FFF7C0FE144B2A68186814192CBF012166
:105BE000002182422C600CD961B9FFF75FFF38B900
:105BF0000E4B4FF080521A60BFF34F8FBFF36F8F81
:105C000038BD09B9A042F0D20021201AFFF7A0FC4C
:105C1000EBE700BF685A0308B85B0308CB5B0308D7
:105C2000EC150020145B03087016002004ED00E062
:105C300010B5044640B90E4B4FF080521A60BFF3C6
:105C40004F8FBFF36F8F10BD0A4B1B682BB10A49F2
:105C50000A484FF4A76227F0CDFCFFF77BFE002136
:105C60002046FFF775FCFFF721FF0028E3D0EAE7A5
:105C700004ED00E0EC150020685A0308145B0308EB
:105C800038B50D46044608B9044B1C6801F0FAFD0E
:105C90002565BDE8384001F017BE00BF581500204B
:105CA00070B5214B1A68214B12B101221A6070BDE8
:105CB0001A6014F051F81E4B1E4918601A680C68DF
:105CC0001D4EA24205D91D683068426D121B2A4440
:105CD00042651B680B60194B1C68B4FA84F4E4B28B
:105CE000C4F11F041423164D6343EB582BB9154917
:105CF000154840F6E73227F07DFC142202FB04F33E
:105D0000E91808334868406848602B44984204BF4B
:105D100043684B6002FB04546368DB68336033689C
:105D20005A6B0A4BC2E700BFEC1500207416002026
:105D3000E0150020DC15002058150020F415002087
:105D400064150020685A0308E35B0308040000E0C0
:105D5000F8B504462A4E01F095FD04B93468251DB6
:105D60002846FFF78DFA60B9E76A264B142078437E
:105D70001B5833B9244901220B68BA4023EA0203B5
:105D80000B60A36A1BB104F11800FFF779FA2946EA
:105D90001E481F4DFFF752FA94F85C30012B04BFE8
:105DA000002384F85C3001F08FFD2A682AB101F0ED
:105DB00069FDFFF709FB01F087FD3368A34212D1AB
:105DC0002B688BB1134B1B682BB11349134840F25E
:105DD000EC6227F00FFC124B4FF080521A60BFF3B9
:105DE0004F8FBFF36F8FF8BD084A11680D4A1268D4
:105DF000914201D13360F6E7BDE8F840FFF750BFAC
:105E00005815002064150020F415002048160020C5
:105E100044160020EC150020685A0308145B0308A0
:105E200004ED00E0E415002038B50D46044628B91D
:105E30000849094840F6014227F0DCFB074B196886
:105E400020461831FFF705FA28460121BDE8384001
:105E5000FFF77EBB685A03082A5C03085815002028
:105E600070B50E461446054628B90B490B484FF449
:105E7000436227F0BFFB0A4B196828461831FFF729
:105E8000DDF9002C21460CBF30464FF0FF30BDE855
:105E90007040FFF75DBB00BF685A03082A5C030827
:105EA0005815002037B5C368DC682CB91849194863
:105EB0004FF4466227F09EFB04F118010846019159
:105EC000FFF7DEF9144B01991B68F3B9211D084651
:105ED0000191FFF7D5F91148E26A0568019901239C
:105EE00093402B4303600E4B142000FB0230FFF75E
:105EF000A5F90C4BE26A1B68DB6A9A4285BF0A4B24
:105F000001200020186003B030BD0848EFE700BF53
:105F1000685A0308365C0308EC150020F4150020CD
:105F2000641500205815002074160020301600203B
:105F3000034B1B680360034B1B684360704700BF43
:105F4000281600207016002070B50D46044628B9AA
:105F50001649174840F6DB4227F04CFB2DB9134990
:105F6000144840F6DC4227F045FB01F08BFC124B55
:105F700019682B685A1C17D0104826680068626898
:105F8000864208D08A4206D800232B60012401F003
:105F90009BFC204670BD881A8342F5D95B1A1344D6
:105FA0002B602046FFF7C4FF0024F0E7685A03087F
:105FB000455C03084F5C030870160020281600207B
:105FC000014B01221A6070477416002070B50C4610
:105FD0001646054608B91B4A1568256005F13402C6
:105FE0006260EA6A22612A6BE2612A6CA260AA6C92
:105FF00062616A6DA261052B1AD0124A1268AA4228
:106000000AD100232373D6B1296B0023CA5CA52AC9
:1060100013D09B08238470BD032B2373F3D1FFF7A8
:1060200099FCAB6A0BB102232373FFF73FFDEAE74C
:106030002846FFF7B1FB2073E5E70133E6E7268446
:10604000E9E700BF581500202DE9F84F0D68064616
:106050000C46174625B34B685B684B6001F1080896
:10606000434504BFCB684B604B68D3F80CA00025B8
:106070004FF0240B63685B686360984504BFD8F8F1
:10608000043063606368D3F80C900BFB05613B46FA
:1060900001224846FFF79AFFCA4505F10105E9D1FB
:1060A0002846BDE8F88F00002DE9F04706469046E7
:1060B000FFF750FC204B1B688B423BD8DFF88C90DD
:1060C000062500244FF0140A2427013D07FB046035
:1060D00001220AFB0591FFF7B7FF0444002DF4D11C
:1060E000164B0222196807FB0460FFF7ADFF144B43
:1060F00004441968022207FB0460FFF7A5FF04446B
:106100001049042207FB0460FFF79EFF251807FBD8
:1061100005600D490322FFF797FF0544B8F1000F12
:1061200003D013F019FEC8F80000FFF7BFFC2846A3
:10613000BDE8F0870025F8E7E41500205C15002095
:10614000601500205C160020481600206415002011
:10615000054B1B6833B1054B1B68002B0CBF02209D
:10616000002070470120704744160020EC150020E5
:10617000F7B50446002832D0214AC36A1168C96ABB
:106180008B42164633D282691E4D002AA1BF326867
:10619000D26AC2F106028261142202FB03534269F1
:1061A0009A421ED1011D08460191FFF769F8164B6E
:1061B000019930B9E76A1A680120B84022EA000262
:1061C0001A6032681E68D26AE262012404FA02F0A0
:1061D00030431860142000FB0250FFF72FF82046D0
:1061E00003E03368DB6AC362012003B0F0BD1368CB
:1061F000806CDC6AA0422CBF00200120F5E700BFC4
:106200005815002064150020F415002037B5044609
:1062100010B9002003B030BD1E4B1B68834205D06F
:106220001D491E4841F22D0227F0E4F9E36C2BB919
:1062300019491B4841F22E0227F0DCF9E36CE16AB0
:10624000A26C013B9142E364E3D0002BE1D1211D1C
:1062500008460191FFF714F8124A019930B9E56A2E
:1062600013680120A84023EA00031360A36C15689B
:10627000E362C3F10600A061012404FA03F028439D
:106280001060094A142000FB0320FEF7D7FF2046C8
:10629000C0E700BF58150020685A03085D5C03087A
:1062A000735C0308F41500206415002037B50D4613
:1062B0000446002846D0C36C2BB92349234841F239
:1062C0007D0227F097F9A16CE36A8D4238BF0D4635
:1062D000AB4237D0E36C012B34D11D4B1B68A3427A
:1062E00005D119491B4841F2980227F083F9A269A8
:1062F000E36AE562002AA4BFC5F10605A561164D53
:10630000142202FB035362699A421BD1211D0846E5
:106310000191FEF7B5FFE46A104A019928B91368A4
:106320000120A04023EA0003136010680123A3406A
:106330000343142000FB0450136003B0BDE8304059
:10634000FEF77CBF03B030BD685A0308735C0308D6
:1063500058150020885C030864150020F4150020FF
:10636000044B1A681AB11968CA6C0132CA641868F9
:10637000704700BF581500202DE9F0410F46154623
:10638000064628B11C491D4841F2422227F032F945
:106390001B4C01F077FA06F11608236853F82830F1
:1063A00083B923683344012183F85C1055B1284632
:1063B000FFF7CEF8134B4FF080521A60BFF34F8FA8
:1063C000BFF36F8F01F080FA01F05CFA236853F895
:1063D000285025B1236867B1002243F8282020689F
:1063E0003044002380F85C3001F06EFA2846BDE8A6
:1063F000F0816A1EF1E700BF685A03089E5C03083B
:106400005815002004ED00E0F7B50D461646044689
:1064100028B92C492C4841F2E83227F0EBF82DB18D
:1064200028492A4841F2E93227F0E4F801F048FB14
:10643000EFF311874FF05F0383F31188BFF36F8F82
:10644000BFF34F8F6319022104EB850593F85C209D
:1064500083F85C10AB6D012A03F10103AB6528D111
:10646000A36A2BB117491A4841F20F4227F0C2F82C
:10647000184B1B680BBB211D08460191FEF700FF5E
:106480001548E26A05680199012393402B43036094
:10649000124B142000FB0230FEF7D0FE104BE26AD4
:1064A0001B68DB6A9A4204D9012306B133600D4AA6
:1064B000136087F3118803B0F0BD0B4804F1180195
:1064C000EAE700BF685A03080C5D0308D45C0308C0
:1064D000395D0308EC150020F41500206415002038
:1064E00058150020741600203016002010B5044600
:1064F00001F0C8F9A46B01F0E7F9B4FA84F040099F
:1065000010BDF8B51546026C866B044652B9076893
:1065100047BB8068FFF77AFEA76005460136A66391
:106520002846F8BD65B940682EF00CF96368226C06
:106530001344A26863609342F0D323686360EDE77D
:10654000C0682EF0FFF8226CE36851429B1A226863
:10655000E36093423EBFA3685B18E360022D01D164
:1065600016B1013E0025D9E73546D7E7034610B4FA
:106570001A6C08466AB1DC68996814448C4228BFDA
:106580001968DC6028BFD960D9685DF8044B2EF02B
:10659000D9B85DF8044B704770B5044601F072F944
:1065A00094F8455004F124066DB2002D14DCFF234D
:1065B00084F8453001F088F901F064F994F844500A
:1065C00004F110066DB2002D12DCFF2384F8443074
:1065D000BDE8704001F078B9636A002BE7D030461F
:1065E000FFF760FC08B1FFF7EBFC013D6DB2DCE7A3
:1065F0002369002BE9D03046FFF754FC08B1FFF7C0
:10660000DFFC013D6DB2DEE738B50D46044628B922
:106610001A491B4840F20D1226F0ECFF01F032F946
:10662000D4E90F31226862604B43D0185B1A1344DF
:10663000A060E3600020FF23A06384F8443084F866
:10664000453095B9236963B104F11000FFF72AFCC6
:1066500038B10C4B4FF080521A60BFF34F8FBFF32D
:106660006F8F01F031F9012038BD04F11000FEF701
:10667000D7FD04F12400FEF7D3FDF2E7775D0308B0
:10668000925D030804ED00E0F7B50D4616461C4682
:10669000074628B91D491E484FF4A47226F0AAFFE8
:1066A0002CB91A491B484FF4A67226F0A3FF36B343
:1066B0002DB9164918484FF4A87226F09BFF5023B5
:1066C0000193019B502B05D01049144840F25912F8
:1066D00026F090FF019B7CB10121002D08BF2646CA
:1066E000C4E90F7584F8461026602046FFF78CFF3A
:1066F0009DF8203084F84C30204603B0F0BD002DCA
:10670000DDD00249064840F25112D6E7775D030812
:106710009A5D0308BC5D0308D25D0308425E03086E
:106720000A5E0308F8B50D461746064628B916490D
:1067300016484FF4C37226F05DFF05FB06F44DB119
:10674000B4FBF5F3B34205D00F4911484FF4C772BB
:1067500026F050FF04F1500000F044FF044670B1F1
:10676000002380F8463065B100F15003C4E90F659D
:10677000236001212046FFF747FF84F84C70204634
:10678000F8BD0346F2E700BF775D03089A5D030892
:106790005D5E03082DE9FF470F4601921E46044641
:1067A00028B95849584840F2093226F023FF3FB92A
:1067B000236C2BB15349554840F20A3226F01AFF98
:1067C000022E08D1E36B012B05D04E49504840F210
:1067D0000B3226F00FFFFFF7BBFC38B9019B2BB142
:1067E00048494C4840F20E3226F004FFDFF8289169
:1067F000DFF828814FF0000A01F044F8A26BE36B48
:106800009A4201D3022E1ED1A36C434A43F48073F3
:106810001360394632462046FFF773FE636A1BB1A8
:1068200004F12400FFF73EFB38B13C4B4FF080529F
:106830001A60BFF34F8FBFF36F8F01F045F801204F
:1068400004B0BDE8F087019D45B901F03DF8A36CA7
:10685000314A43F4007313600020F1E7BAF1000FEE
:1068600002D102A8FFF764FB01F02EF8FFF772F8DF
:1068700001F008F894F84430FF2B04BF002384F89B
:10688000443094F84530FF2B04BF002384F8453092
:1068900001F01AF801A902A8FFF756FB58BB00F057
:1068A000F1FFA26BE36B9A4214D101F00DF8A36CD7
:1068B00043F48063C9F80030019904F11000FFF738
:1068C000B3FA2046FFF768FEFFF7F0F850B14FF03B
:1068D000010A91E700F0F8FF2046FFF75DFEFFF7A1
:1068E000E5F8F4E74FF08053C8F80030BFF34F8F5E
:1068F000BFF36F8FEBE72046FFF74EFEFFF7D6F8AA
:10690000A5E700BF775D0308925D0308AC5E03084E
:10691000FC5E0308435F03080C0000E004ED00E0A8
:1069200013B500220B46009011460120FFF7ACFE84
:10693000044638B1002383600360C3601A461946D9
:10694000FFF728FF204602B010BD10B50246002117
:106950000120FFF7E7FE044638B10023836003609F
:10696000C3601A461946FFF715FF204610BD000008
:106970002DE9F843894690461F46044628B92E491A
:106980002E4840F2DD3226F035FEB9F1000F07D176
:10699000236C2BB128492A4840F2DE3226F02AFE29
:1069A000022F08D1E36B012B05D02349254840F283
:1069B000DF3226F01FFE01F083F8EFF311864FF06F
:1069C0005F0383F31188BFF36F8FBFF34F8FA26B09
:1069D000E36B9A4201D3022F2BD194F84550A36B5D
:1069E0006DB23A4649462046FFF78BFD6B1C13D12A
:1069F000636A0BB901200BE004F12400FFF752FA9F
:106A00000028F7D0B8F1000FF4D00120C8F800003A
:106A100086F31188BDE8F8837F2D05D106490A4821
:106A20004FF48D6226F0E6FD01356DB284F84550D5
:106A3000E0E70020ECE700BF775D0308925D030804
:106A4000AC5E0308FC5E0308995F0308F8B50E46C8
:106A5000044628B9274928484FF4916226F0CAFD18
:106A6000236C2BB12349254840F28C4226F0C2FD0D
:106A700023683BB9A3682BB11E49214840F29142DB
:106A800026F0B8FD01F01CF8EFF311874FF05F031B
:106A900083F31188BFF36F8FBFF34F8FA36BE26B4C
:106AA0009A4224D994F845200133FF2A55B2A363B2
:106AB00010D1636A0BB9012009E004F12400FFF74B
:106AC000F1F90028F7D0002EF5D00120306087F3CF
:106AD0001188F8BD7F2D05D106490A484FF4A262FE
:106AE00026F088FD01356DB284F84550E3E70020BB
:106AF000EDE700BF775D0308925D0308B25F03080E
:106B0000CB5F0308995F03082DE9F04385B00E467B
:106B10000192044628B94A494A4840F22C5226F0CC
:106B200069FD3EB9236C2BB1454947484FF4A66235
:106B300026F060FDFFF70CFB38B9019B2BB14049F3
:106B4000424840F2355226F055FD414FDFF80481AE
:106B50004FF0000900F096FEA56BD5B131462046F6
:106B6000013DFFF703FDA563236963B104F1100044
:106B7000FFF798F938B1374B4FF080521A60BFF3E6
:106B80004F8FBFF36F8F00F09FFE012005B0BDE86F
:106B9000F083019D1DB900F097FE0020F6E7B9F1E2
:106BA000000F02D102A8FFF7C3F900F08DFEFEF737
:106BB000D1FE00F067FE94F84430FF2B04BF0023A1
:106BC00084F8443094F84530FF2B04BF002384F848
:106BD000453000F079FE01A902A8FFF7B5F918BB0E
:106BE0002046FFF783FCC8B1A36C43F440733B60BD
:106BF000019904F12400FFF717F92046FFF7CCFCB8
:106C0000FEF754FF38B94FF08053C8F80030BFF397
:106C10004F8FBFF36F8F4FF001099BE72046FFF7BF
:106C2000BBFCFEF743FFF6E72046FFF7B5FCFEF797
:106C30003DFF2046FFF75AFC0028ECD0ADE700BF2F
:106C4000775D0308326003083E600308435F030872
:106C50000C0000E004ED00E02DE9FF410446019145
:106C600028B95849584840F2BE5226F0C3FC236C5C
:106C70002BB15449554840F2C25226F0BBFCFFF7F5
:106C800067FA38B9019B2BB14E49514840F2C752BF
:106C900026F0B0FC00254F4FDFF83C812E4600F077
:106CA000F1FDA36BE3B1013BA363236813B9FFF7C5
:106CB00057FBA060236963B104F11000FFF7F2F8FD
:106CC00038B1454B4FF080521A60BFF34F8FBFF37E
:106CD0006F8F00F0F9FD0125284604B0BDE8F08172
:106CE000019B53B92DB137493C4840F20D6226F063
:106CF00081FC00F0E9FD0025EEE716B902A8FFF7D8
:106D000017F900F0E1FDFEF725FE00F0BBFD94F859
:106D10004430FF2B04BF002384F8443094F84530FE
:106D2000FF2B04BF002384F8453000F0CDFD01A9FE
:106D300002A8FFF709F960BB2046FFF7D7FB10B3A5
:106D4000A36C43F440733B6023683BB900F09AFDA9
:106D5000A068FFF70DFA054600F0B6FD019904F1B1
:106D60002400FFF761F82046FFF716FCFEF79EFEB1
:106D700038B94FF08053C8F80030BFF34F8FBFF3DE
:106D80006F8F01268BE72046FFF706FCFEF78EFE8D
:106D9000F7E72046FFF700FCFEF788FE2046FFF7E6
:106DA000A5FB0028EDD0002D96D000F06BFD616AA8
:106DB00019B1236B1968C1F10601A068FFF776FAD3
:106DC00097E700BF775D030832600308B25F0308EE
:106DD000435F03080C0000E004ED00E0916003084D
:106DE0002DE9F04385B00E460192044628B9454985
:106DF000454840F2976226F0FDFB3EB9236C2BB16B
:106E00004049424840F29B6226F0F4FBFFF7A0F9AC
:106E100038B9019B2BB13B493D484FF4D46226F071
:106E2000E9FB0027DFF8EC90B84600F02BFDA36BE0
:106E3000D3B131462046E568FFF798FB636AE56009
:106E400063B104F12400FFF72DF838B1314B4FF056
:106E500080521A60BFF34F8FBFF36F8F00F034FD85
:106E6000012005B0BDE8F083019D1DB900F02CFDA7
:106E70000020F6E717B902A8FFF75AF800F024FD42
:106E8000FEF768FD00F0FEFC94F84430FF2B08BFCD
:106E900084F8448094F84530FF2B08BF84F845807F
:106EA00000F012FD01A902A8FFF74EF8F0B9204644
:106EB000FFF71CFBA0B1019904F12400FEF7B4FF19
:106EC0002046FFF769FBFEF7F1FD38B94FF080531C
:106ED000C9F80030BFF34F8FBFF36F8F0127A4E7CE
:106EE0002046FFF759FBFEF7E1FDF7E72046FFF7E5
:106EF00053FBFEF7DBFD2046FFF7F8FA0028EDD044
:106F0000B6E700BF775D0308326003083E60030800
:106F1000435F030804ED00E02DE9F84389469046FD
:106F2000054628B92649274840F22C7226F062FB14
:106F3000B9F1000F07D12B6C2BB12149224840F247
:106F40002D7226F057FB00F0BBFDEFF311874FF0D9
:106F50005F0383F31188BFF36F8FBFF34F8FAC6B69
:106F60005CB395F84460494676B22846FFF7FEFACE
:106F7000013C731CAC6313D12B690BB901200BE0EE
:106F800005F11000FEF78EFF0028F7D0B8F1000FD2
:106F9000F4D00120C8F8000087F31188BDE8F88319
:106FA0007F2E05D1064909484FF4EE6226F022FBF8
:106FB000013676B285F84460E0E72046ECE700BF92
:106FC000775D0308925D0308B1600308FC60030865
:106FD00013B5044628B90749074840F2BE7226F0A7
:106FE00009FB00F04FFCA06B019000F06DFC0198D4
:106FF00002B010BD775D0308935D030810B5044629
:1070000028B90649064840F66E1226F0F3FAE06BFE
:10701000A36BC31A5842584110BD00BF775D0308E7
:10702000925D030830B5074A002352F8335002EB53
:10703000C3041DB942F83310606030BD01330A2B20
:10704000F3D1FAE724E9002070B504460D46164650
:1070500000F018FC94F84430FF2B04BF002384F8A0
:10706000443094F84530FF2B04BF002384F84530AA
:1070700000F02AFCA36B2BB93246294604F1240008
:10708000FEF7EEFE2046BDE87040FFF785BA00002F
:10709000F7B5114C00F0F6FB2568BDB90F4F104E47
:1070A0003846FEF7BDF83046FEF7BAF80D4B0E4AEB
:1070B0001F600E4B0C211E6014200D4B0095FFF736
:1070C000E3FA206010B10B49FFF7ACFF03B0BDE855
:1070D000F04000F0F9BB00BFEC1700207017002053
:1070E0008417002078160020801600207C160020CF
:1070F0009C17002015610308914208B541600061AA
:107100000AD8D21A83699A420DD2084B011D186819
:10711000FEF79FF8002008BD9A4201D2994202D2A0
:10712000034B011DF3E70120F5E700BF7C160020AB
:107130007816002030B589B0FFF7AAFF124B1B6804
:10714000CBB1002507AA06A905A8CDE9055518F079
:1071500025FB059B02930124069B0193079A0B498B
:107160000B4800942B46FEF739FA0A4B186010B111
:10717000204609B030BD0848084940F20D1226F0FB
:1071800039FA0020F5E700BFEC1700201A61030868
:107190006D730008F01700203E61030822610308A8
:1071A0002DE9F04180462C200D4616461F4600F082
:1071B00019FA0446D8B1002380F828302DB90D49BA
:1071C0000D4840F25F1226F015FAFFF761FF069BAB
:1071D000C4F80080C4E906572362201DFEF72BF88F
:1071E0002EB194F8283043F0040384F82830204668
:1071F000BDE8F08122610308466103082DE9F341EF
:1072000098462C230193019B099C2C2B06460D4686
:10721000174605D0174918484FF49F7226F0EAF92F
:10722000019B4CB9134915484FF4A27226F0E2F9BC
:10723000204602B0BDE8F081022384F828302DB941
:107240000C490F4840F25F1226F0D4F9FFF720FFF7
:10725000089B2660C4E906582362201DFDF7EBFF5A
:10726000002FE5D094F8283043F0040384F8283048
:10727000DEE700BF22610308626103087D61030845
:10728000466103082DE9FF410C4690461E4605461F
:1072900028B9114911484FF4C17226F0ABF9104FCB
:1072A000386880B1052CCDE9014803950EDCFEF766
:1072B0004FFF0023022808BF0A9A386818BF1A46F1
:1072C00001A9FFF767FA04B0BDE8F0810023324658
:1072D00001A9FFF74DFBF6E7226103088B61030864
:1072E000EC1700202DE9FF411C4D1D4FDFF8788081
:1072F0002B681A6832B91B4A11682960136004B000
:10730000BDE8F081DB68DC681E68211D084603913A
:10731000FDF7B6FF236A2046984794F82830039972
:1073200013F0040FE4D0A36933449E4205D22868C9
:1073300063602461FDF78DFFDAE700230093324696
:1073400019462046FFF79EFF0028D1D140F2A9320E
:107350003946404626F04EF9CAE700BF78160020AD
:10736000226103087C160020926103082DE9F04F8A
:10737000774E784F87B0784D2B68D3F800B0BBF1CB
:10738000000F2AD0DB68D3F800B00024FEF7E2FA41
:10739000FEF7E8FA714BDFF8D0811A689042824616
:1073A00099461CD3186024B36D4B1B681C68B4FA53
:1073B00084F46409D8F800002246ABEB0A01FFF719
:1073C00043FEFEF773FB88B9664A4FF080531360A3
:1073D000BFF34F8FBFF36F8F08E00124D6E7FFF7AD
:1073E00081FF5E4BC3F800A0FEF760FBDFF87CB1C5
:1073F00051E08345DED8FEF759FB2B68DB68DD687A
:10740000281DFDF73DFF95F82830580719D5A969C3
:107410005B46524659442846FFF76EFE68B1009419
:1074200023465A4621462846FFF72CFF28B94FF439
:1074300005723146384626F0DDF82B6A2846984713
:10744000D4E723F0010385F82830F6E794F82830D4
:10745000A16943F0010384F82830049B2A461944AB
:107460002046FFF749FEB0B1236A2046984794F8BA
:10747000283059070FD5A269049900230A440093C4
:1074800019462046FFF7FEFE28B940F23632314653
:10749000384626F0AFF8D8F80000002203A9FFF71D
:1074A00033FB00283FF467AF039B002BF3DB059C05
:1074B000636913B1201DFDF7E3FEFEF753FAD9F817
:1074C00000309842054601D2FFF70CFF039BC9F834
:1074D0000050092BDFD801A252F823F04D740008A8
:1074E0004D7400084D7400080575000813750008F8
:1074F000417500084D7400084D74000805750008BA
:107500001375000894F8283023F0010384F828301C
:10751000C1E794F8283043F0010384F82830049B35
:10752000A3612BB940F24F323146584626F062F83B
:10753000A1692B462A4629442046FFF7DDFDAAE72C
:1075400094F828309A07DFD4204600F0E7F8A2E745
:107550002261030892610308781600209817002022
:107560007C16002004ED00E0EC1700209A6103086F
:1075700013B5044628B90749074840F20A4226F0E5
:1075800039F800F07FF9E069019000F09DF9019869
:1075900002B010BD226103088B61030810B50F4BC8
:1075A0001A461B688342FBD354681119884201BFF5
:1075B000416810460919516041684418A34208D136
:1075C000074C2468A34204D05B680B4443601368F3
:1075D0001B680360904218BF106010BD3C8D0020F6
:1075E000F41700202DE9F8430446FEF7B3F94049AB
:1075F000404E0B68CBB9404B404A58071CBF07337D
:1076000023F007030020136050603D4A22F0070278
:10761000C2E90000D01AC3E900203A4B0A601860A2
:10762000394B18604FF00043336033681C4207D079
:10763000FEF73CFA11F0B6FD00273846BDE8F883A6
:10764000002CF5D004F1080562071CBF25F00705E2
:107650000835002DECD02C4B1A68AA429846E7D387
:10766000264B1C686268AA4202D22268002A3CD1DA
:107670000A68A242DCD022681F681A6063685B1B3C
:10768000102B07F1080711D904EB050919F0070FB2
:1076900004D01E491E48C52225F0ACFF63685B1B61
:1076A000C9F8043048466560FFF778FF15496268FD
:1076B000D8F8003008689B1A834238BF0B60C8F8BE
:1076C000003033681343134A636000232360136858
:1076D00001331360FEF7EAF97B07AED00B490E4881
:1076E0004FF4837225F086FFA7E723461446B9E7D7
:1076F000F4170020288D0020F81700203C8D002072
:10770000208D0020308D00202C8D0020BF610308CB
:10771000EC610308348D00202D62030838B504465F
:10772000002834D01A4D50F8041C2A68114205D1A3
:10773000184919484FF48D7225F05CFF54F8083C45
:107740002BB11449154840F21B1225F053FF54F891
:10775000043C2A6813421AD054F8081CB9B923EA29
:10776000020344F8043CFEF7F5F80D4A54F8043CD3
:107770001168A4F108000B441360FFF70FFF094ADA
:10778000136801331360BDE83840FEF78FB938BD88
:10779000288D0020BF61030873620308A4620308F8
:1077A0002C8D0020388D0020014B1868704700BFD9
:1077B0002C8D002008480068006880F308884FF08E
:1077C000000080F3148862B661B6BFF34F8FBFF339
:1077D0006F8F00DF00BF000008ED00E0DFF80C0055
:1077E000016841F4700101607047000088ED00E01D
:1077F00007B5002301930B4B1B68013304D00A49E2
:107800000A48E52225F0F6FE4FF05F0383F3118866
:10781000BFF36F8FBFF34F8F019B002BFCD003B0E2
:107820005DF804FB00000020C4620308F462030852
:107830004FF0807340F8043C074B40F80C3C21F0BB
:1078400001016FF0020340F8081C40F8202C40F8BA
:10785000243C4438704700BFF17700080000000066
:10786000074B19680868B0E8F04F80F30988BFF348
:107870006F8F4FF0000080F311887047AFF30080E6
:10788000581500204FF05F0383F31188BFF36F8F0B
:10789000BFF34F8F084A13680133012B13600AD1DD
:1078A000064B1B6813F0FF0F05D0054905484FF440
:1078B000D27225F09FBE70470000002004ED00E06A
:1078C000C46203080E63030810B5084C23682BB983
:1078D0000749084840F2AB1225F08CFE2368013BB3
:1078E00023600BB983F3118810BD00BF0000002096
:1078F000C4620308436303080000000000000000A6
:10790000EFF30980BFF36F8F154B1A681EF0100F4D
:1079100008BF20ED108A20E9F04F10602DE9090022
:107920004FF05F0080F31188BFF34F8FBFF36F8F6D
:10793000FEF7B6F94FF0000080F3118809BC196812
:107940000868B0E8F04F1EF0100F08BFB0EC108AC6
:1079500080F30988BFF36F8F704700BFAFF30080DB
:107960005815002008B54FF05F0383F31188BFF36B
:107970006F8FBFF34F8FFDF7FBFF18B1034B4FF035
:1079800080521A60002383F3118808BD04ED00E0E3
:10799000054B064900221A600A60054A0549116034
:1079A00007221A60704700BF10E000E018E000E016
:1079B00014E000E03F90020013B5344C344A2168D3
:1079C000914205D1334934484FF4967225F012FEA6
:1079D0002268324B9A4205D12E49314840F22D128D
:1079E00025F008FE2F4B304C1A78D2B20192FF22BC
:1079F0001A701B782D4ADBB28DF803309DF80330E6
:107A000003F05F0313700723236000229DF8031027
:107A1000090603F1FF3030D412B1032B236005D0E7
:107A20001C4923484FF4AB7225F0E4FD23681D4A3E
:107A30001B0203F4E0632360019BDBB213701D4B58
:107A40001A6842F47F021A601A6842F07F421A6094
:107A5000FFF79EFF184B00241C60FFF7BFFE174A7C
:107A6000136843F040431360FFF7A4FEFEF718F9D4
:107A7000FFF7BEFE204602B010BD9DF803305B004C
:107A8000DBB28DF8033001220346BFE700ED00E0D2
:107A900071C20F41C46203085563030870C20F41ED
:107AA0007863030800E400E0488D0020448D002046
:107AB0009B63030820ED00E00000002034EF00E0AD
:107AC00008B5EFF305830F2B0BD90E4A9B5C0E4ACA
:107AD00012789A4205D90D490D484FF43F7225F0AE
:107AE00089FD0C4B0C4A1B68126803F4E063934257
:107AF00007D9BDE80840054908484FF4437225F00E
:107B000079BD08BDF0E300E0448D0020C4620308A5
:107B1000DE6303080CED00E0488D002008640308D4
:107B200008B501214FF4807000F060FCBDE808400A
:107B300000214FF4807000F059BC000043680A79BE
:107B400023F0407323F4807343EA02230A6813434B
:107B50004360D1E9032313438A6810B51343846853
:107B6000084A224013434A7943EA420383600A7D6C
:107B7000C36A013A23F47003D2B243EA0253C362E8
:107B800010BD00BFFDF7FFC00023C0E90233036052
:107B900083800361012303757047000010B5D0E9AD
:107BA0000032064913434C68054A22401343826859
:107BB0001343C26813434B6010BD00BF0023014054
:107BC000E030FCFF0023C0E90033C0E90233704716
:107BD000836819B143F001038360704723F0010308
:107BE000FAE7092970B519D9A1F10A04C56804EBAF
:107BF00044040726A64025EA0605A3402B43C3609C
:107C0000062A16D8541E436B04EB84041F22A2409C
:107C100023EA0202A1400A43426370BD046901EBFA
:107C200041060725B54024EA0504B3402343036118
:107C3000E6E70C2A0BD8D31F046B03EB83031F2248
:107C40009A4024EA020299400A430263E5E7A2F15E
:107C50000D03C46A03EB83031F229A4024EA020443
:107C600001FA03F22243C262D7E7836843F08043FC
:107C700083607047C06C80B270470368194214BFBC
:107C80000120002070470000044B9A6811B1104396
:107C90009860704722EA0000FAE700BF002004E085
:107CA000044BDA6811B11043D860704722EA000033
:107CB000FAE700BF002004E0036823F0010303603B
:107CC0000023036043608360C36003612123436139
:107CD0002A4B984203D13D2243F8082C7047284B89
:107CE000984204D14FF4746243F8202C7047254B1E
:107CF000984204D14FF4741243F8382C7047224B49
:107D0000984204D14FF0746243F8502C70471F4BD7
:107D1000984203D11E4A43F8642C70471D4B984289
:107D200003D11D4A43F87C2C70471C4B984203D169
:107D30001B4A43F8942C70471A4B984204D14FF0D9
:107D40003D5243F8AC2C17E0174B9842C3D0174B69
:107D50009842C7D0164B9842CCD0164B9842D1D0FF
:107D6000154B9842D6D0154B9842DAD0144B984216
:107D7000DED0144B9842E2D0704700BF1060024042
:107D8000286002404060024058600240706002403B
:107D90003D00002088600240400F0020A0600240AB
:107DA00000003D20B8600240106402402864024098
:107DB000406402405864024070640240886402409B
:107DC000A0640240B86402400368134A10B51A4028
:107DD000CC680B6823434C6923438C692343CC69EB
:107DE00023430C6A23434C6A23438C6A23434C6B22
:107DF00023438C6B234313430360D1E90B34426963
:107E0000234322F00702134343610B6943604B682D
:107E100083608B68C36010BD3F801CF0036819B19C
:107E200043F001030360704723F00103FAE7416068
:107E30007047406880B27047006800F001007047EA
:107E400010B50A4B0A4C0B4AA04294BF1846104684
:107E50008B004CBF43680368194021F0F02020F0EC
:107E60008210003818BF012010BD00BF0060024022
:107E70000F6402400064024010B5084B084A094CE8
:107E8000A04294BF1846104621F0F02323F082133D
:107E90008A004CBFC360836010BD00BF0060024019
:107EA000006402400F6402400B0612D5436952B1D0
:107EB00043F080038029436104D0036801F01E0170
:107EC00019430160704723F080038029436104D186
:107ED00070478029F6D0002AEFD1036801F01E0117
:107EE00023EA0101EDE70000114A124B10B5124CD4
:107EF000A04288BF134621F0F02222F0C31292B1B3
:107F0000006800EAD12000F01E0288004CBF5B68C8
:107F10001B680B4023F0F02020F0821010B1101EDF
:107F200018BF012010BD426902F08002EDE700BFDA
:107F300000640240006002400F640240FFF79CBFF3
:107F40000268837910B5D243002B2FD01B4B1968E0
:107F50000A401A605A68016822EA01025A600279EE
:107F6000046802F1804202F59E32116821431160DB
:107F70009A68016822EA01029A600168DA6822EAD6
:107F80000102DA6042790168102A07D19A680A432F
:107F90009A60DA6801680A43DA6010BD02F1804332
:107FA00003F59E331A680A431A60F6E7037903F172
:107FB000804303F59E3319680A40F5E7003C014011
:107FC000034B5B69034214BF01200020704700BFD0
:107FD000003C0140014B5861704700BF003C01402C
:107FE000FFF7EEBF014B5861704700BF003C0140F6
:107FF000F0B50022012603250B6806FA02F737EADE
:10800000030333D10368540005FA04FE23EA0E0388
:1080100003600B796FEA0E0CD0F800E0A34043EA4E
:108020000E0303600B79013B012B14D883680CEA23
:10803000030383604B79D0F808C0A34043EA0C03E4
:108040008360436823EA070343608B794768934062
:108050009BB23B434360C36805FA04F723EA070376
:10806000C360CB79C768A3403B43C3600132102A89
:10807000C2D1F0BD4FF6FF720023C0E90023704764
:108080000369194214BF0120002070470183704723
:10809000418370470AB1018370474183704710B52F
:1080A00001F00703C90800EB81009B00016A0F245F
:1080B0009C4021EA04010162016A9A400A4302627B
:1080C00010BD000008B5144B98420BD101214FF4AC
:1080D000001000F07FF900214FF40010BDE80840C7
:1080E00000F078B90D4B984208D101214FF480007F
:1080F00000F070F900214FF48000EFE7084B984240
:1081000008D101214FF4000000F064F900214FF480
:108110000000E3E708BD00BF0054004000580040E5
:10812000005C00407FB5868826F03F060446360492
:1081300068460D46360C00F0D9F8029A2B49B2FB7E
:10814000F1F188B20643A6802388294E23F001036B
:108150001B041B0C23802B68B34223D85B00013027
:10816000B2FBF3F39BB2042B80B238BF042320840C
:10817000A38323889BB243F0010323802388AA882A
:10818000698923F4816323F002031B040A431B0C57
:1081900013439BB22380AB892A8913439BB223816B
:1081A00004B070BDEE884BF6FF7086421BBF1920ED
:1081B000434303EB4303B2FBF3F315BF9BB2B2FBA4
:1081C000F3F343F480439BB2C3F30B020AB943F0C9
:1081D00001034FF496724A434FF47A71B2FBF1F205
:1081E000013292B243F400432284C1E740420F00BF
:1081F000A086010022B141F0010189B201827047DD
:1082000001F0FE01F9E7038821B19BB243F48063DA
:108210000380704723F480631B041B0CF8E7018282
:108220007047008AC0B27047838821B19BB243F483
:1082300000638380704723F400631B041B0CF8E782
:10824000838821B19BB243F480538380704723F429
:1082500080531B041B0CF8E783889BB212B11943AF
:108260008180704723EA0101FAE782B0002300937E
:1082700001930B0F01900093009B21F07F4153B1BC
:10828000019B14330193019B1B680B4214BF012017
:10829000002002B07047019B090C1833F2E7C94374
:1082A00089B2818270470000014B1860704700BF9F
:1082B00000300040014B5860704700BF0030004064
:1082C000014B9860704700BF00300040024B4AF6F7
:1082D000AA221A60704700BF00300040024B4CF6E3
:1082E000CC421A60704700BF0030004010B51D4AF4
:1082F000936803F00C03042B1AD0082B1AD01A4BE6
:10830000184A036093681949C3F30313CC5C0368EC
:10831000E34043609468C4F382240C5D23FA04F4C0
:1083200084609268C2F342328A5CD340C36010BD5D
:108330000F4BE5E75468516852686302C2F3881234
:108340004CBF0B4B084B01F03F01B3FBF1F3534320
:10835000044A5268C2F3014201325200B3FBF2F305
:10836000CEE700BF003802400024F40004000020E3
:1083700000127A00044B1A6B11B110431863704756
:1083800022EA0000FAE700BF00380240044B5A6BB3
:1083900011B110435863704722EA0000FAE700BFAA
:1083A00000380240044B1A6C11B110431864704736
:1083B00022EA0000FAE700BF00380240044B5A6C82
:1083C00011B110435864704722EA0000FAE700BF79
:1083D00000380240044B1A6A11B11043186270470A
:1083E00022EA0000FAE700BF00380240044B5A6A54
:1083F00011B110435862704722EA0000FAE700BF4B
:108400000038024008B5274B98420BD101214FF4A8
:108410008050FFF7EBFF00214FF48050BDE808408B
:10842000FFF7E4BF204B98420BD101214FF480406D
:10843000FFF7D0FF00214FF48040BDE80840FFF770
:10844000C9BF1A4B984208D101214FF40040FFF7F1
:10845000C1FF00214FF40040EFE7154B984208D1CF
:1084600001214FF40050FFF7C1FF00214FF40050ED
:10847000D4E7104B984208D101214FF48010FFF748
:10848000B5FF00214FF48010C8E70B4B984208D18C
:1084900001214FF40010FFF7A9FF00214FF4001055
:1084A000BCE708BD0030014000380040003C0040FF
:1084B000003401400050014000540140038810B5D1
:1084C00003F441524C880B8823438C882343CC8887
:1084D00023430C8923434C8923438C892343CC8930
:1084E000234313439BB20380838B23F400631B0459
:1084F0001B0C83830B8A038210BD038821B19BB2BE
:1085000043F040030380704723F040031B041B0C1F
:10851000F8E7808980B270478181704783889BB279
:1085200012B119438180704723EA0101FAE70389F8
:10853000194214BF01200020704730B5058C25F08A
:1085400001052D042D0C0584048B058C24F0F30407
:10855000ADB22404240C42EA031325F00A051C439F
:108560002943A4B241F001010483018430BD70B5F8
:10857000068C26F010063604360C0684058B048C17
:1085800025F44075A4B22D05120224F0A0042D0D8F
:1085900042EA033244EA01141543A4B2ADB244F0F6
:1085A00010040583048470BD1C4A038890429BB26A
:1085B00012D002F5806290420ED0B0F1804F0BD005
:1085C000A2F58032904207D002F58062904203D03B
:1085D00002F58062904203D14A8823F0700313436E
:1085E0000F4A904208D002F5806290421FBF23F4E8
:1085F00040730A899BB2134303804B68C3620B88A4
:108600000385064B984203D003F58063984201D15D
:108610008B7A038601238382704700BF00000140EC
:108620000010004000234FF0FF32C0E90032038108
:1086300083727047018582827047038821B19BB2A3
:1086400043F001030380704723F001031B041B0C5C
:10865000F8E70000038C23F001031B041B0C0384C8
:1086600070B5038C8288048B0D884E8824F07304C7
:108670002404240C2C4323F002038D891B0435436E
:108680001B0C2B430E4DA84292B29BB203D005F5B2
:108690008065A8420ED1CD894E8A23F008032B4372
:1086A0008D8823F004032B430D8A22F44072354356
:1086B0002A4392B2828004838A684263038470BD35
:1086C00000000140038C23F010031B041B0C0384E7
:1086D00070B5038C8488028B0D884E8822F4E642A4
:1086E0001204120C42EA052223F020038D891B0498
:1086F00035431B0C43EA0513114DA842A4B292B2B4
:108700009BB203D005F58065A84213D1CD894E8A6E
:1087100023F0800343EA05134FF6BF751D408B8895
:1087200045EA03130D8A24F44064354344EA850482
:108730009BB2A4B2848002838A688263038470BD82
:1087400000000140038C23F480731B041B0C038482
:1087500070B5038C8288848B0D884E8824F0730456
:108760002404240C2C4323F400738D891B0435430B
:108770001B0C43EA0523114DA84292B29BB203D0D1
:1087800005F58065A84213D1CD894E8A23F4006394
:1087900043EA05234FF6FF351D408B8845EA032346
:1087A0000D8A22F44052354342EA05129BB292B23E
:1087B000828084838A68C263038470BD00000140A4
:1087C000038C23F480531B041B0C038470B5038CAF
:1087D0008488828B0D884E8822F4E6421204120CA3
:1087E00042EA052223F400538D891B0435431B0CF8
:1087F00043EA05330A4DA842A4B292B29BB203D019
:1088000005F58065A84205D10D8A24F4804444EA28
:108810008514A4B2848082838A680264038470BD54
:10882000000001404163704781637047C163704736
:1088300001647047038B23F008031B041B0C1943CE
:1088400001837047038B23F400631B041B0C43EA72
:10885000012189B201837047838B23F008031B0435
:108860001B0C194381837047838B23F400631B0423
:108870001B0C43EA012189B2818370470023012246
:10888000038043808280C38003817047406B7047C0
:10889000806B7047006C7047038B23F00C031B0444
:1088A0001B0C0383038B9BB2194301837047028B1C
:1088B00022F440621204120C0283038B9BB243EA3F
:1088C000012189B201837047838B23F00C031B04C1
:1088D0001B0C8383838B9BB2194381837047828BEC
:1088E00022F440621204120C8283838B9BB243EA0F
:1088F000012189B281837047F8B50E460D88B28890
:108900004988338935B9FFF718FEF188BDE8F8408A
:10891000FFF7C2BF042D06D1FFF729FEF188BDE89D
:10892000F840FFF7C4BF082D058C1CD125F48075D5
:108930002D042D0C0584878B058CBFB2ADB227F0BA
:10894000F30725F4206545EA0125174347EA031795
:10895000ADB2BFB245F4807587830584F188BDE868
:10896000F840FFF7B1BF25F480552D042D0C058488
:10897000B0F81CC0058C25F400552CF4407C6D0427
:108980001F034FEA0C5C6D0C45EA01354FEA1C5C95
:1089900047EA02274CEA0707ADB2BFB245F480555B
:1089A00087830584F188BDE8F840FFF798BFB0F8E9
:1089B000443039B16FEA43436FEA53439BB2A0F8A6
:1089C00044307047C3F30E03F9E783899BB212B1B9
:1089D00019438181704723EA0101FAE7038A1942AA
:1089E00014BF012000207047038A828911EA030026
:1089F00092B203D00A4214BF012000207047C9433D
:108A000089B201827047FFF7E0BF000030B5038AEA
:108A1000CA889BB223F440531343038283890D46D3
:108A200023F4B0528B8809890B43698922F00C0228
:108A30000B431204120C9BB213438381838AAA89CD
:108A40009BB223F44073134385B083820446684687
:108A5000FFF74CFC194B9C4203D003F580639C420A
:108A600022D10399A2891923100403FB01F3A289DF
:108A700029684FF064054CBF490089001204B3FB1C
:108A8000F1F1B1FBF5F34FEA031005FB13130DD51C
:108A9000DA003232B2FBF5F202F0070242EA0003DA
:108AA0009BB2238105B030BD0299DBE71B01323355
:108AB000B3FBF5F303F00F030343F1E700100140AC
:108AC000838921B19BB243F400538381704723F41F
:108AD00000531B041B0CF8E7C1F3080181807047A9
:108AE0008088C0F308007047838A9BB212B1194393
:108AF0008182704723EA0101FAE7012310B5C1F32F
:108B000042149C4201F01F0103FA01F105D10C301F
:108B100003683AB11943016010BD022C0CBF10303C
:108B20001430F5E723EA0101F5E7C94389B2018072
:108B30007047C1F3421210B5012301F01F04012A4E
:108B400003FA04F30ED1828992B21340028892B2E2
:108B50006BB10123090A03FA01F10A4214BF184656
:108B6000002010BD022A0CBF028A828AECE7184658
:108B7000F7E70000034B40F0BF6040F40030D860DE
:108B8000704700BF00ED00E010B5C378027803B372
:108B9000154BD9684378C943C1F30221C1F10404DC
:108BA000E4B2A340DCB20F2343FA01F183780B4017
:108BB0000E4923430A441B01DBB282F800330378D9
:108BC0000122580903F01F0302FA03F341F8203091
:108BD00010BD5309012102F01F0201FA02F22033F5
:108BE000024941F82320F3E700ED00E000E100E056
:108BF00010B501F0030301F0FC0101F1804101F522
:108C00009C319B008A680F249C4022EA04028A60FF
:108C10008A6898401043886010BD000037B5002373
:108C2000114D0193044603200FF072FD2268013DAF
:108C30001369019314D0019B002BF4DA019B43F0DC
:108C400001030193019B13612168074B0A6901929B
:108C5000013B02D0019AD207F8D403200FF058FD4F
:108C6000002003B030BD00BF410D030030B5C47813
:108C700044B900EB82020333D2F8D0209D10234682
:108C80009D4201D1002030BD51F823001060013316
:108C9000F6E710B50332D0F8D000921000239342CB
:108CA00002D101EB830010BD046841F82340013379
:108CB000F5E70000012370B5012943804FF0400320
:108CC000838032D14FF4816303804FF4A073C3805B
:108CD00002230372C1724FF0A04303F5006245788E
:108CE0000261C36003F5106200F1180400218D4297
:108CF00027D803F58062426103F58862C0F8CC2072
:108D0000024603F5A06412F8905B00218D4220D842
:108D100003F5805100F1D004002295421ED803F5DE
:108D20006063C0F80C31002070BD41B940F20C63A3
:108D300003804FF4A063C380C1720B4BCDE70023C7
:108D4000CBE744F8042B02F50076A663013120320C
:108D5000CDE742F8044B01312034D7E744F8041B37
:108D6000013201F58051D8E70000044070B5044697
:108D70000025227A50F80C3F012A2E4626D19D6B01
:108D8000627A66F310450AB145F480159D63E26886
:108D9000D36823F4940323F04003D360FFF73EFF2E
:108DA000E378012B10D12A2363F30706E3689E6062
:108DB000E378012B08D1E268966826F03E0343F081
:108DC0002A0363F307069660002070BDDA6842F05C
:108DD0004002DA60FFF722FF2D2363F31745637A21
:108DE0000BB145F48015E36814209D630FF091FCEE
:108DF000DEE7C268936843F0010393600020704788
:108E0000C268936823F0010393600020704700005C
:108E100007B500230193019B43F020030193019BBD
:108E200061F38A130193C368019A1A61C168074B01
:108E30000A690192013B02D0019A9206F8D40320FC
:108E40000FF066FC002003B05DF804FB410D030049
:108E500007B500230193019B43F010030193C368FE
:108E6000019A1A61C168074B0A690192013B02D05D
:108E7000019AD206F8D403200FF04AFC002003B078
:108E80005DF804FB410D030008B5C068C368C3F377
:108E9000076222F06002012962F31F6307D143F0E9
:108EA0000053C36032200FF034FC002008BD0029BD
:108EB000F7D143F08043F4E7C3685869C04300F03A
:108EC00001007047C36858699B6918407047026980
:108ED000136861F30103136070470000C268002348
:108EE0009361C2686FF080435361C2684FF0FF31F5
:108EF0005160C2685361C368074A9A61C378002B06
:108F0000064B0CBF102200221343C26891690B4329
:108F100093610020704700BF0008008008383C00C3
:108F200070B5D0F80C31002119600269136861F343
:108F3000CC231360C37A012B044616D10321FFF71B
:108F4000C6FFC36880225A62C36802F500129A62A3
:108F5000C2682D4BC2F80431C2682C4BC2F80831EC
:108F6000C2684FF4A073C2F80C3110212046FFF7FD
:108F70004FFF2046FFF76CFF22690023136122692F
:108F8000536122694FF0FF31916122691846D36124
:108F9000FF2504F118026178994217D8002304F1E3
:108FA00054021846FF25617899421ED82269136938
:108FB00043F480731361E378012B02BF2369144AE1
:108FC0001A632046FFF78AFF002070BD11680E6803
:108FD000002EACBF00264FF090460E60116808616D
:108FE00052F8041B01338D60D5E711680E68002E1E
:108FF000ACBF00264FF090460E601168086152F831
:10900000041B01338D60CEE7A0008000200120000A
:109010000301810003699868C0F3410002281DBF65
:1090200020F00200C0F10300C0B2012070470369C4
:1090300082699B681168C3F34103022B14BF0023AC
:10904000032363F30A0111600269536843F48073D8
:10905000536000207047000070B50B784D780122F6
:109060009A4000EB8303012D0CBF9D695D6D2E6856
:109070004FF0000492B20CBF62F30F0462F31F447E
:10908000330414D4CB7803F003028B68C3F30A03D0
:1090900043F0805343F4004343EA8243CA8802F01A
:1090A0000F0243EA8253054A324013432B6003699F
:1090B000DA691443DC61002070BD00BF007833EC36
:1090C00030B50B78497801229A4000EB83030129DF
:1090D0000CBF9B695B6D4FF000052C466FF3CF35DD
:1090E0001D6092B20CBF62F30F0462F31F44026969
:1090F000D36923EA0403D361002030BDF8B54C786E
:109100000A784B69012C00EB820252D197693C68C6
:109110003A6902F060421BBB42F400223A61C37814
:109120000A78012B2ED100EB82030A699B695A61F0
:10913000CB78012B29D0C4F3076363F07B0363F37F
:109140001F640B7800EB83039B691C60CB78012BB9
:1091500004D18B8A0A78C968FFF788FD0020F8BD22
:109160008E68F518013DB5FBF6F62E4DC3F31203DC
:1091700005EAC6452B431A43CB78012B08BF63F39E
:109180005E72CBE7CB78012B06D103699B68DB05C8
:109190000CD544F08054CEE74B69002BCBD0056949
:1091A00001236E6B934033436B63C1E744F000547B
:1091B000C1E7566D8F6834683269C7F312050BBB7F
:1091C00065F31202012363F3DC423261C378012BA1
:1091D00005D10B780A6900EB83035B6D5A61CB788C
:1091E000012B03D14B79CBB144F00054C4F3076396
:1091F00063F07B0363F31F640B7800EB8300436D24
:109200001C60ABE73B44013BB3FBF7F3C3F309033B
:1092100063F3DC426B4363F31202D6E744F08054FD
:10922000E4E700BF0000F81FF7B54B784E69012B4B
:1092300040D1826914681369009336BB23F4C013CC
:1092400023F07F0343F400230093009B1361C37852
:10925000012B05D10B780D6900EB83039B695D61E0
:10926000C4F3076363F07B0363F31F641460C37884
:1092700043B94B6933B102690978506B01238B40C4
:1092800003435363002003B0F0BD8D689DF80030A8
:10929000B54234BF65F3060366F306038DF800306C
:1092A0009DF8023038BF4D61012565F3C4038DF888
:1092B0000230CAE70D78D1F808C000EB85050CF044
:1092C0007F076B6D1C681B690093DAB2C3F3074319
:1092D00006BB67F306028DF80020012262F3C40387
:1092E0008DF802306B6D009A1A61C378012B05D19D
:1092F0000B780A6900EB83035B6D5A61C4F3076363
:1093000063F07B0363F31F640B7800EB8300436D12
:109310001C60B7E7C1F814C0DBE74A780B78012A74
:1093200000EB83000AD182691368002B01DA43F055
:10933000804343F40013136000207047426D1368AC
:10934000F7E70B784A78C97800EB8300012A0CBF55
:109350008269426D136802396FF35553012998BF32
:1093600043F0805313600020704703699869DB69FC
:109370001840000C704700EB81014B6D9A6803693F
:1093800058691040704703699869DB69184080B2DA
:1093900070470000426D094B136182B00093C3789F
:1093A000012B08D1436D00F2CC525A61436D1A680B
:1093B0004FF080221A6002B0704700BF180008C04A
:1093C0002DE9F04F85B00446FFF776FD18B900206F
:1093D00005B0BDE8F08F2046FFF774FD82460028F7
:1093E000F5D0C0F3074313F0080000930FD02046D8
:1093F000FFF7BBFFDFF8A492064604F1540B04F517
:109400005F774FF00008002E40F000810120009BA4
:109410005F070DD52046FFF7B6FF04F1180701904E
:1094200025464FF00009019B002B40F03B810120B5
:109430001AF0020F1EBFE36802225A61BAF1000F50
:109440005FFA8AF519DAA37A43B1D4F80C3123F024
:10945000030262F30703D4F80C21136022695368F6
:1094600023F0010353608D4B1B6820469B6998478E
:10947000E3684FF000425A6101201AF4006FCAF30A
:1094800007262FD000238DF80F3094F812318DF875
:109490000F30824B1B6820465B6998472369E2685E
:1094A0009B684FF400615161A27AD2B1DA0718D5F6
:1094B00094F81531012B14D19DF80F30032B10D1E6
:1094C000D4F80C21136843F001031360D4F80C2185
:1094D000136843F003031360714A136943F00603F2
:1094E000136101202B0708D56C4B1B682046DB68F5
:1094F0009847E36808225A610120EF0616D5E26812
:10950000936923F010039361E3681D6AC5F3434335
:10951000022B05F00F0800F04981062B00F0618155
:10952000E268936943F0100393610120F50635D595
:1095300022695368002523F0010353602946204621
:10954000FFF766FC2F4604F118022B46FF206178D6
:109550008B42C0F0528123694FF0FF329A61236938
:109560004FF00112DA6122690B2363F3070555619D
:1095700063F3070723691F61226913686FF30A13F6
:1095800013602046FFF706FFE3684FF480525A61EC
:10959000424B1B6820461B6998470120B10619D52C
:1095A0002046FFF744FDE3682046DD68FFF732FD03
:1095B000032840F029810023A3704FF40073A38097
:1095C000092363F38D25E368DD60E3684FF40052FF
:1095D0005A610120009BDA0609D5304B1B682046F2
:1095E000DB699847E3684FF480125A610120009BC1
:1095F0009B067FF5EDAE294B1B6820461B6A9847FA
:10960000E3684FF400125A610120E1E6F1071CD52E
:109610005FFA88F120460191FFF7ADFE10F0010FCF
:10962000019919D10546AA0741BFDBF800200225A0
:109630002B4693602B0708D5D9F800202046926866
:109640009047DBF800200823936008F101087608B2
:109650000BF1040B2837D6E6DBF8002001259560D6
:10966000E278AA4207D1DBF8002010693A68C0F31B
:109670001200121A3A61D9F8002020461268904769
:10968000E278012ACFD1B8F1000FCCD194F81121A2
:10969000052AC8D12046FFF77DFEC4E74000002020
:1096A00000ED00E0019BDE075BD523695FFA89FBD3
:1096B0001A695E6B04EB8B0326FA0BF69B69F601C5
:1096C0009B68F6B216431E40F00715D53B6801268D
:1096D0009E60504B1B6859465B6820469847E3786C
:1096E000B34209D1B9F1000F06D194F81131042B1E
:1096F00002D12046FFF74EFE310742BF3B680826E5
:109700009E60F20642BF3B6810269E60730642BF11
:109710003B6840269E60B00742BF3B6802269E60C1
:1097200031061ED5D5E94C63F61AD5F824319E4290
:1097300028BF1E460336B6083B689B699BB2B342FE
:1097400004D9D5E94C32934200D993B92269012159
:10975000536B01FA09F123EA010353633B6880224A
:109760009A60019B5B0809F10109019304372835D0
:1097700059E6A3EB0208D5F82431D5F8281198450D
:1097800028BF98461FFA88F35A462046FFF76EFA1C
:10979000D5F828314344C5F82831D5F8343108F1DB
:1097A00003064344B608C5F83431C5E747F6F073FD
:1097B0002B423FF4B5AE282707FB0847C5F30A152F
:1097C000D7F880132A462046FFF763FAD7F880338C
:1097D0002B44C7F88033D7F88C231544C7F88C5333
:1097E0009EE6082204F2CC5120462827FFF751FAC2
:1097F00007FB0847C5F30A15EDE752F8041B88601C
:10980000916B01338860A2E60123A3704023A380FB
:109810000523D6E6400000200148FFF7D1BD00BF78
:10982000943D001070B50446FFF744FA002301216F
:10983000657884F8121184F8143104F58E72184694
:1098400040269D4202F128021AD8002204F55D73D9
:1098500011464020954203F128031FD82046FFF708
:10986000CFFA2046FFF782FA00212046FFF70CFBD3
:109870002046FFF755FB2046BDE87040FFF7B9BA18
:1098800002F8283C22F8223C42E9086002F8271C32
:1098900002F8250C42F8140C0133D2E703F8282C07
:1098A00023F8222C43E9080103F8271C03F8251CA0
:1098B00043F8141C0132CDE770B54EB201F07F05BC
:1098C000002E4FF02804B5BF04FB050104FB010185
:1098D00001F58E7101F55D71002EB8BFCD80022BB0
:1098E000CB704FEAD67408BF00230D704C708A60AD
:1098F00008BF0B71FFF7B0FB002070BD4BB2002B0F
:1099000010B54FF0280201F07F04B5BF02FB04013F
:1099100002FB010101F58E7101F55D71DB0F0C7029
:109920004B70FFF7CDFB002010BD70B501F07F0438
:10993000282606FB040506FB0401C5F8883300232E
:1099400085F87443C5F88023C5F88C3385F87533E2
:10995000C37806FB0404012B08BFC5F8842394F8E0
:10996000743301F55D711BB9FFF75EFC002070BD1B
:10997000FFF7C4FBFAE770B501F07F06282505FB69
:10998000060405FB0601C4E94A2201250022C4E9B8
:109990004C3201F58E7184F81D5184F81C611EB99A
:1099A000FFF742FC002070BDFFF7A8FBFAE74BB2BF
:1099B000002B10B54FF0280201F07F04B5BF02FB69
:1099C000040102FB010101F58E7101F55D710122B7
:1099D000DB0F8A700C704B70FFF79FFC002010BDEE
:1099E00038B54BB201F07F05002B4FF02802B5BF10
:1099F00002FB050102FB010101F58E7101F55D71AC
:109A00000024DB0F8C700D704B70FFF79AFC204622
:109A100038BD0269002361F30A1311680B43136018
:109A2000704710B502241346C0E94E2280F8114158
:109A30000A460021FFF79FFF002010BD08B513461E
:109A40000A460021FFF797FF002008BD08B513461E
:109A50000A460021FFF769FF002008BD10B5042366
:109A600080F81131002304461A461946FFF783FF98
:109A70002046FFF78FFC002010BD10B5052380F8AD
:109A80001131002304461A461946FFF74EFF2046BF
:109A9000FFF780FC002010BD10B580210446FFF7C1
:109AA00086FF20460021FFF782FF2046BDE81040D8
:109AB000FFF770BC73B54B7804460D46092B6CD884
:109AC000DFE813F0BE00FC006B00CE006B0063000B
:109AD0000A006B00B00083004B881E0A022E25D0BE
